:1000000000000020FD040000DB880000E188000003
:10001000E7880000ED880000F38800000000000081
:100020000000000000000000000000006D0500005E
:10003000F9880000000000001306000073060000AD
:1000400099870000A7870000B5870000C3870000DC
:10005000D1870000DF870000ED870000FB870000EC
:1000600009880000178800002588000033880000F8
:10007000418800004F8800005D8800006B88000008
:1000800079880000FF880000058900000B890000C6
:1000900011890000178900001D89000023890000D4
:1000A000298900002F890000358900003B89000064
:1000B00041890000478900004D89000087880000C1
:1000C000538900009588000059890000A38800002A
:1000D0005F890000B1880000658900006B8900001D
:1000E00071890000778900007D8900008389000004
:1000F000898900008F890000958900009B89000094
:100100000D0500000D0500000D0500000D050000A7
:10011000A1890000A7890000AD890000B389000013
:10012000B9890000BF890000C5890000CB890000A3
:10013000D1890000D7890000DD890000E389000033
:10014000E9890000EF890000BF880000F589000000
:10015000CD880000FB890000018A0000078A0000AA
:100160000D8A0000138A0000198A00001F8A00000F
:10017000258A00002B8A0000318A0000378A00009F
:100180003D8A00000D0500000D0500000D05000072
:100190000D0500000D0500000D0500000D05000017
:1001A0000D0500000D0500000D0500000D05000007
:1001B0000D0500000D0500000D0500000D050000F7
:1001C0000D0500000D0500000D0500000D050000E7
:1003F0000D0500000D0500000D050000FFFFFFFFCB
:10040000FFFFFFFFFFFFFFFFFFFFFFFFFEFFFFFFFD
:1004400010B5054C237833B9044B13B10448AFF30E
:1004500000800123237010BD8810002000000000E0
:100460009012010008B5034B1BB103490348AFF3D9
:10047000008008BD000000008C10002090120100D8
:10048000A3F5803A704700BF174B002B08BF134BF2
:100490009D46FFF7F5FF00218B460F461348144A8F
:1004A000121A0DF0C5F90E4B002B00D098470D4BDA
:1004B000002B00D098470020002104000D000D48BB
:1004C000002802D00C480CF08FFE0CF0D3FE200068
:1004D000290003F0A1FC0CF093FE00BF000008000F
:1004E00000000000C58B00000000002088100020E4
:1004F000A0490020E9D1000021D2000072B607F027
:1005000063FD07F0F9FC62B6FFF7BEFFFFF7FEBF21
:1005100080F309887047EFF309807047684680F3DD
:1005200009885A480078C00714BF0220032080F3CE
:1005300014887047DFF858C1EFF305831B0618BF16
:100540006047EFF31483DB0708BF604700DF7047A5
:10055000DFF840C1EFF305831B0618BF6047EFF3D8
:100560001483DB0708BF604700DF7047EFF30980A3
:10057000816911F8021CE1BB90E80F1010B5E0474B
:10058000BDE81040EFF3098C8CE80700424B93E87C
:100590000600914208BF704741B91EF0100F16D1F6
:1005A0003E49086820F00100086010E01EF0100FBE
:1005B00006BF2CED108A0120002081F825002CE9CF
:1005C000F00FC1F828C00CB409F0FEFD0CBC1A6095
:1005D000D2F828C0BCE8F00F92F8250000280EBF22
:1005E0006FF0020E6FF0120EBCEC108A8CF30988CB
:1005F000704710B52A4A1268914209D8294C54F81C
:10060000214090E80F10A047EFF3098C8CE80F0011
:1006100010BD10B509F04AFDBDE810401E4B93E82F
:100620000600914208BF7047EFF3098C1EF0100FCF
:1006300006BF2CED108A0120002081F825002CE94E
:10064000F00FC1F828C00CB409F0BEFD0CBC1A6054
:10065000D2F828C0BCE8F00F92F8250000280EBFA1
:100660006FF0020E6FF0120EBCEC108A8CF309884A
:10067000704710B509F08AFDFFF7CEBF10B509F03D
:1006800083FD09F083FDFFF7C7BF0000C000010034
:10069000399A0000559A00003C49002034EF00E0F0
:1006A00000000000FCFFFFFF81F0004102E000BFFE
:1006B00083F0004330B54FEA41044FEA430594EA22
:1006C000050F08BF90EA020F1FBF54EA000C55EA5D
:1006D000020C7FEA645C7FEA655C00F0E2804FEA2E
:1006E0005454D4EB5555B8BF6D420CDD2C4480EA10
:1006F000020281EA030382EA000083EA010180EA40
:10070000020281EA0303362D88BF30BD11F0004F8D
:100710004FEA01314FF4801C4CEA113102D04042C3
:1007200061EB410113F0004F4FEA03334CEA1333FE
:1007300002D0524263EB430394EA050F00F0A78016
:10074000A4F10104D5F1200E0DDB02FA0EFC22FA11
:1007500005F2801841F1000103FA0EF2801843FA05
:1007600005F359410EE0A5F120050EF1200E012AF6
:1007700003FA0EFC28BF4CF0020C43FA05F3C01834
:1007800051EBE37101F0004507D54FF0000EDCF1AD
:10079000000C7EEB00006EEB0101B1F5801F1BD356
:1007A000B1F5001F0CD349085FEA30004FEA3C0C5A
:1007B00004F101044FEA445212F5800F80F09A8050
:1007C000BCF1004F08BF5FEA500C50F1000041EB54
:1007D000045141EA050130BD5FEA4C0C404141EB58
:1007E0000101013C28BFB1F5801FE9D291F0000F53
:1007F00004BF01460020B1FA81F308BF2033A3F102
:100800000B03B3F120020CDA0C3208DD02F1140CF8
:10081000C2F10C0201FA0CF021FA02F10CE002F133
:100820001402D8BFC2F1200C01FA02F120FA0CFC2C
:10083000DCBF41EA0C019040E41AA2BF01EB045175
:10084000294330BD6FEA04041F3C1CDA0C340EDC73
:1008500004F11404C4F1200220FA04F001FA02F3B6
:1008600040EA030021FA04F345EA030130BDC4F174
:100870000C04C4F1200220FA02F001FA04F340EA69
:100880000300294630BD21FA04F0294630BD94F01A
:10089000000F83F4801306BF81F480110134013D01
:1008A0004EE77FEA645C18BF7FEA655C29D094EA72
:1008B000050F08BF90EA020F05D054EA000C04BFF0
:1008C0001946104630BD91EA030F1EBF00210020DB
:1008D00030BD5FEA545C05D14000494128BF41F07A
:1008E000004130BD14F580043CBF01F5801130BDDE
:1008F00001F0004545F0FE4141F470014FF0000069
:1009000030BD7FEA645C1ABF194610467FEA655C19
:100910001CBF0B46024650EA013406BF52EA0335BB
:1009200091EA030F41F4002130BD00BF90F0000FA9
:1009300004BF0021704730B54FF4806404F13204E5
:100940004FF000054FF0000150E700BF90F0000F9E
:1009500004BF0021704730B54FF4806404F13204C5
:1009600010F0004548BF40424FF000013EE700BF95
:1009700042004FEAE2014FEA31014FEA02701FBF25
:1009800012F07F4393F07F4F81F06051704732F057
:100990007F4208BF704793F07F4F04BF41F40021AE
:1009A000704730B54FF4607401F0004521F000410C
:1009B0001CE700BF50EA010208BF704730B54FF096
:1009C00000050AE050EA010208BF704730B511F097
:1009D000004502D5404261EB41014FF4806404F1CF
:1009E00032045FEA915C3FF4D8AE4FF003025FEA55
:1009F000DC0C18BF03325FEADC0C18BF033202EBD9
:100A0000DC02C2F1200300FA03FC20FA02F001FA32
:100A100003FE40EA0E0021FA02F11444BDE600BFD5
:100A200070B54FF0FF0C4CF4E06C1CEA11541DBF84
:100A30001CEA135594EA0C0F95EA0C0F00F0DEF84F
:100A40002C4481EA030621EA4C5123EA4C5350EA34
:100A5000013518BF52EA033541F4801143F4801385
:100A600038D0A0FB02CE4FF00005E1FB02E506F016
:100A70000042E0FB03E54FF00006E1FB03569CF06B
:100A8000000F18BF4EF0010EA4F1FF04B6F5007F71
:100A900064F5407404D25FEA4E0E6D4146EB0606E3
:100AA00042EAC62141EA55514FEAC52040EA5E506C
:100AB0004FEACE2EB4F1FD0C88BFBCF5E06F1ED816
:100AC000BEF1004F08BF5FEA500E50F1000041EB4D
:100AD000045170BD06F0004646EA010140EA0200FA
:100AE00081EA0301B4EB5C04C2BFD4EB0C0541EA1C
:100AF000045170BD41F480114FF0000E013C00F331
:100B0000AB8014F1360FDEBF002001F0004170BD54
:100B1000C4F10004203C35DA0C341BDC04F114046D
:100B2000C4F1200500FA05F320FA04F001FA05F2F9
:100B300040EA020001F0004221F0004110EBD370C6
:100B400021FA04F642EB06015EEA430E08BF20EAF2
:100B5000D37070BDC4F10C04C4F1200500FA04F395
:100B600020FA05F001FA04F240EA020001F0004127
:100B700010EBD37041F100015EEA430E08BF20EA9A
:100B8000D37070BDC4F1200500FA05F24EEA020EE2
:100B900020FA04F301FA05F243EA020321FA04F011
:100BA00001F0004121FA04F220EA020000EBD370C8
:100BB0005EEA430E08BF20EAD37070BD94F0000FC8
:100BC0000FD101F00046400041EB010111F4801FFC
:100BD00008BF013CF7D041EA060195F0000F18BFAD
:100BE000704703F00046520043EB030313F4801FE9
:100BF00008BF013DF7D043EA0603704794EA0C0FA3
:100C00000CEA135518BF95EA0C0F0CD050EA4106B8
:100C100018BF52EA4306D1D181EA030101F0004135
:100C20004FF0000070BD50EA410606BF104619465D
:100C300052EA430619D094EA0C0F02D150EA013669
:100C400013D195EA0C0F05D152EA03361CBF1046AA
:100C500019460AD181EA030101F0004141F0FE4149
:100C600041F470014FF0000070BD41F0FE4141F4CD
:100C7000780170BD70B54FF0FF0C4CF4E06C1CEACD
:100C800011541DBF1CEA135594EA0C0F95EA0C0F82
:100C900000F0A7F8A4EB050481EA030E52EA03353D
:100CA0004FEA013100F088804FEA03334FF080555E
:100CB00045EA131343EA12634FEA022245EA11158B
:100CC00045EA10654FEA00260EF000419D4208BF3C
:100CD000964244F1FD0404F5407402D25B084FEAE9
:100CE0003202B61A65EB03055B084FEA32024FF495
:100CF00080104FF4002CB6EB020E75EB030E22BFF2
:100D0000B61A754640EA0C005B084FEA3202B6EBB1
:100D1000020E75EB030E22BFB61A754640EA5C0060
:100D20005B084FEA3202B6EB020E75EB030E22BFF0
:100D3000B61A754640EA9C005B084FEA3202B6EBF1
:100D4000020E75EB030E22BFB61A754640EADC00B0
:100D500055EA060E18D04FEA051545EA16754FEA12
:100D600006164FEAC30343EA52734FEAC2025FEA30
:100D70001C1CC0D111F4801F0BD141EA00014FF0BF
:100D800000004FF0004CB6E711F4801F04BF014390
:100D90000020B4F1FD0C88BFBCF5E06F3FF6AFAEAC
:100DA000B5EB030C04BFB6EB020C5FEA500C50F13C
:100DB000000041EB045170BD0EF0004E4EEA1131BF
:100DC00014EB5C04C2BFD4EB0C0541EA045170BDC6
:100DD00041F480114FF0000E013C90E645EA060E0A
:100DE0008DE60CEA135594EA0C0F08BF95EA0C0F38
:100DF0003FF43BAF94EA0C0F0AD150EA01347FF480
:100E000034AF95EA0C0F7FF425AF104619462CE756
:100E100095EA0C0F06D152EA03353FF4FDAE1046B9
:100E2000194622E750EA410618BF52EA43067FF40A
:100E3000C5AE50EA41047FF40DAF52EA43057FF49A
:100E4000EBAE12E74FF0FF3C06E000BF4FF0010CA5
:100E500002E000BF4FF0010C4DF804CD4FEA410C09
:100E60007FEA6C5C4FEA430C18BF7FEA6C5C1BD0D6
:100E700001B050EA410C0CBF52EA430C91EA030F57
:100E800002BF90EA020F0020704710F1000F91EAB4
:100E9000030F58BF994208BF90422CBFD8176FEA82
:100EA000E37040F0010070474FEA410C7FEA6C5C50
:100EB00002D150EA013C07D14FEA430C7FEA6C5C57
:100EC000D6D152EA033CD3D05DF8040B704700BF83
:100ED0008446104662468C461946634600E000BFD1
:100EE00001B5FFF7B7FF002848BF10F1000F01BDA3
:100EF0004DF808EDFFF7F4FF0CBF012000205DF86E
:100F000008FB00BF4DF808EDFFF7EAFF34BF0120F2
:100F100000205DF808FB00BF4DF808EDFFF7E0FF8B
:100F200094BF012000205DF808FB00BF4DF808EDDC
:100F3000FFF7CEFF94BF012000205DF808FB00BF43
:100F40004DF808EDFFF7C4FF34BF012000205DF825
:100F500008FB00BF4FEA410C7FEA6C5C02D150EA0B
:100F6000013C0AD14FEA430C7FEA6C5C02D152EAA1
:100F7000033C02D14FF0000070474FF00100704772
:100F80004FEA410212F5001215D211D56FF47873B1
:100F9000B3EB625212D94FEAC12343F0004343EA54
:100FA000505311F0004F23FA02F018BF404270472F
:100FB0004FF00000704750EA013005D111F00040B9
:100FC00008BF6FF0004070474FF00000704700BF4F
:100FD0004A0011D212F5001211D20DD56FF47873B8
:100FE000B3EB62520ED44FEAC12343F0004343EA0D
:100FF000505323FA02F070474FF00000704750EA58
:10100000013002D14FF0FF3070474FF000007047C1
:101010004FEA4102B2F1E04324BFB3F5001CDCF11A
:10102000FE5C0DD901F0004C4FEAC0024CEA507052
:10103000B2F1004F40EB830008BF20F00100704781
:1010400011F0804F21D113F13872BCBF01F0004084
:10105000704741F480114FEA5252C2F11802C2F1B6
:10106000200C10FA0CF320FA02F018BF40F0010037
:101070004FEAC1234FEAD32303FA0CFC40EA0C00E9
:1010800023FA02F34FEA4303CCE77FEA625307D126
:1010900050EA01331EBF4FF0FE4040F4400070475D
:1010A00001F0004040F0FE4040F40000704700BFF7
:1010B00053B94AB9002908BF00281CBF4FF0FF31BF
:1010C0004FF0FF3001F0C0B8ADF1080C6DE904CE6F
:1010D00000F006F8DDF804E0DDE9022304B0704713
:1010E0002DE9F047089D04468C46002B40F0838094
:1010F0008A42174647D9B2FA82F242B1C2F12000C1
:1011000024FA00F09140974040EA010C94404FEAE5
:101110001748230CBCFBF8F61FFA87FE08FB16C124
:1011200043EA014306FB0EF1994209D9FB1806F187
:10113000FF3080F01981994240F21681023E3B4413
:101140005B1AA4B2B3FBF8F008FB103344EA034483
:1011500000FB0EFEA64509D93C1900F1FF3380F0D3
:101160000581A64540F2028102383C4440EA06402F
:10117000A4EB0E0400261DB1D4400023C5E90043B2
:101180003146BDE8F08702B9FFDEB2FA82F2002AEA
:1011900050D1CB1B4FEA174E1FFA87F80126B3FB3D
:1011A000FEFC210C0EFB1C3341EA034108FB0CF34F
:1011B0008B4207D979180CF1FF3002D28B4200F232
:1011C000E9808446C91AA3B2B1FBFEF00EFB1011F0
:1011D00043EA014408FB00F8A04507D93C1900F197
:1011E000FF3302D2A04500F2D9801846A4EB0804D0
:1011F00040EA0C40BFE78B4209D9002D00F0B180D6
:101200000026C5E9000130463146BDE8F087B3FA53
:1012100083F6002E4AD18B4202D3824200F2B8807C
:10122000841A61EB030101208C46002DA8D0C5E98A
:10123000004CA5E7C2F1200320FA03F6974001FA1B
:1012400002F04FEA174ED9403043030CB1FBFEF6D3
:101250001FFA87F80EFB161143EA014306FB08F15B
:10126000994204FA02F409D9FB1806F1FF3C80F018
:101270008D80994240F28A80023E3B445B1A81B2E3
:10128000B3FBFEF00EFB103341EA034100FB08F311
:101290008B4207D9791800F1FF3C73D28B4271D988
:1012A00002383944CB1A40EA064678E7C6F1200CEA
:1012B00003FA06F422FA0CF31C4320FA0CF701FAA5
:1012C00006F34FEA144E21FA0CF11F433B0CB1FB1D
:1012D000FEF91FFA84F80EFB191143EA014109FBDC
:1012E00008FA8A4502FA06F200FA06F308D96118EC
:1012F00009F1FF3048D28A4546D9A9F102092144B3
:10130000A1EB0A01BFB2B1FBFEF00EFB101147EAE0
:10131000014700FB08F8B84507D9E71900F1FF318C
:101320002ED2B8452CD90238274440EA0940A7EB11
:101330000807A0FB02894F45C64649461AD317D075
:101340005DB1B3EB0E0267EB010707FA0CFCF2404C
:101350004CEA0202F740C5E9002700263146BDE805
:10136000F0872E4628460BE70646E9E61846FDE6D6
:101370004345E5D2B8EB020E69EB04010138DFE723
:101380000846D2E760468DE78146B9E7664675E7CD
:1013900030464AE7ACF1020C394413E702383C44CA
:1013A00024E700BF03685A004CBF43F0004323F01A
:1013B00000431844704700BF2DE9F84329B34F1E7E
:1013C000044615463E464FF0000808EB060101EBC7
:1013D000D171491004EBC1094846FFF7E3FF03460A
:1013E000C80008308F42204409D0AB4209D8FFF72B
:1013F000D9FF0138A8420AD201F10108E5E7AB4262
:1014000005D9884501D04E1EDFE74FF00009484658
:10141000BDE8F883012807D0022807D0044B002834
:101420000CBF1846002070470248704702487047BA
:10143000D91A0000DD1A0000E11A000030B5234B74
:1014400083B004468D1E3BB301A92846AFF300804C
:10145000E8B101992A46FFF7AFFF0146B8B1FFF79F
:10146000A1FF4B68A064012B2BD0002B01F10400DD
:1014700023DBFFF797FF0023C4E913030368002B66
:1014800010DBFFF78FFF2061002003B030BD002389
:101490000920236103B030BD0D490E48091AC91057
:1014A0000191D7E7C3F30360FFF7B4FF0028206181
:1014B00014BF0020092003B030BD0123C4E9130389
:1014C000DCE7002323610520DFE700BF0000000008
:1014D000F0180100901501000368DA0710B5044602
:1014E00006D49B0700F1480009D500F04BFC2368A7
:1014F000590709D51A070ED5DB0613D510BD00F024
:1015000039FC23685907F5D404F1D00000F042FCFF
:1015100023681A07F0D404F5A87000F043FC236890
:10152000DB06EBD404F5E870BDE8104000F07EBCAB
:101530000346006800B11844704700BF0920704797
:10154000704700BF70B504460E46316C2046FFF769
:1015500075FF054688B9336C6361324623692146BD
:10156000012098470828F0D0072806D12846316C7A
:10157000FFF7E6FF301D00F0F1FB0BF00FFE00BFA0
:101580002DE9F0470D1D064614460FCDADF5727DD1
:101590000DF10C0CACE80F000FCDACE80F000FCD37
:1015A000ACE80F0095E80F0002ADF768D6F8188098
:1015B0008CE80F0000232B6021E02B6C73614FF44B
:1015C000F07229467AA800F041FE33697AAA3146C2
:1015D00050469847889BCDE9005821466B64814668
:1015E000334632460120B8470446E8B94FF4F0725A
:1015F0007AA9284600F02AFEB9F1080F1BD1296C00
:101600003046FFF71BFF09345FFA84FA8146002851
:10161000D3D0AB6B4AF01001CDE9005832466B6471
:1016200001203346B84708B14FF0090948460DF587
:10163000727DBDE8F087B9F1070FF5D12046296C1E
:10164000FFF77EFF03A800F089FB00BF406C7047E6
:10165000F0B5CB6B0B640E1D0F4605460FCEF9B0EF
:1016600001AC0FC40FCE0FC40FCE0FC496E80F000D
:101670004FF0FF3684E80F00009606E02B696A46BB
:10168000294698470828044608D110992846FFF7AC
:10169000D5FE0028F2D0092079B0F0BD6846FFF7EA
:1016A0001BFF062CF7D139462846FFF74BFF00BF3A
:1016B00030B4DD6BC160826119461D64002230BC0C
:1016C0005EE700BF70B5C66843690B64AEB90369D5
:1016D0000A4604460D46014602209847072805D0D1
:1016E00008280FD129462046FFF72CFF3046296CE9
:1016F000FFF726FF281D00F031FB0122FFF740FF16
:101700000BF04CFD0BF04AFDC2681AB1CA6B0A64BB
:10171000002235E79CE700BF704700BF83680146A1
:101720000BB1012018477047012912D009D873B9AD
:101730000F2A0CD800EB820218465368009A1360F7
:1017400070470339012994BF01200220704702200D
:1017500070470846704700BF10B584B0002303AC43
:101760000A4600941946FFF7DFFF039804B010BD46
:10177000012912D009D873B90F2A0CD800EB8200C6
:10178000009A12684260184670470339012994BFD5
:10179000012002207047022070470846704700BFB2
:1017A00010B584B0002303AC039200940A46194696
:1017B000FFF7DEFF04B010BDF0B5D36B1364151D49
:1017C0008C4606460FCDADF50F7D17AC0FC40FCD7F
:1017D0000FC40FCD0FC495E80F004FF0FF3784E81A
:1017E0000F006546169710E0FFF7DAFF294616A8A6
:1017F000B047034616AA6946082083B9049B984758
:10180000052804460CD0092809D026996846FFF718
:1018100015FE03466A460C2116A8002BE4D00924C5
:1018200016A8FFF759FE20460DF50F7DF0BD00BF4D
:101830002DE9F04FCC6C89B00D4654F8041B06948A
:10184000174600F003081E46002B79D00B0CDAB2C5
:1018500009048DF81D30022304EB820405918DF8F4
:101860001C302B6DB8F1020F08BFAC6B13F00103F5
:101870000CD0384605A900F073FB18B9082009B050
:10188000BDE8F08F092009B0BDE8F08FD4F800A0C2
:10189000BAF1000FEDD0019300F008030293022E7D
:1018A0004AD0B4F800A0B4F802900434AA6C29F02D
:1018B000010B0F2138469344FFF74EFF834539D87B
:1018C0002AF001025A44824294BF002001204FEACC
:1018D000490303F002030AF0010A43EA0A03012B59
:1018E00049D0022B32D0002BCCD1B8F1000F02D05E
:1018F000002840F0CD800434D4F800A0BAF1000FE5
:10190000CDD105A9384600F02BFB0028BAD1019BA8
:10191000002BB3D00F213846FFF71EFF0E210246E1
:101920003846FFF73DFF38466A4A0F21FFF738FF78
:101930000720A8E70020CAE7D4F804900834B5E7E8
:10194000090203230591ADF81C308AE7236823F0D0
:10195000004BB8F1000F45D128B1029A002A5CD0A3
:10196000BBF1000F74D0002B00DA04340BF1010B33
:1019700004EB8B04C0E7B8F1000F19D1B0B1D4E982
:101980000023991C4FEAD2723FF47CAF05F1580155
:101990000133049100F09080201DFFF7C9FD04ABD6
:1019A00001462846AFF3008000285BD10834A3E746
:1019B0000D213846D5F82090FFF7CEFE8145F5D1B0
:1019C000AB6A9C42F2D12046FFF7ECFC0F210246A5
:1019D0003846FFF7E5FE38462A460021FFF7E0FECD
:1019E000072050E70D213846D5F82090FFF7B4FEC8
:1019F000814501D02368B6E7AB6A9C42FAD1042244
:101A00000021C5E90B12A318C5F828B06B63236841
:101A10008B4259DB01230193A8E705F15803CDF868
:101A20000C8004F1040AB04691461E460DE004966F
:101A3000FFF77EFD04AB014600222846AFF300808D
:101A400009F101090AF1040AE8B9D9455046EED175
:101A500038460D21FFF780FE049B2862C5E9093452
:101A6000062010E781460D213846FFF775FEB9F1D3
:101A7000020F286225D12B46049A43F82C2F6B6263
:101A8000AC620620FFE646462368DDF80C806AE774
:101A90002046FFF787FC04340246AC632846144610
:101AA000AFF3008000283FF4EDAE384622460F2108
:101AB000FFF776FE0720E6E638460D21FFF74CFEDD
:101AC0002862049B6B62DBE70BF1010004EB8000F2
:101AD0007AE700BF000000000023A9E60123A7E683
:101AE0000223A5E62DE9F0430646C3B015461C4681
:101AF000042900F2B980DFE801F09A53B729030006
:101B0000002C40F0B180102A00F2AE800368D806A5
:101B100000F1F38020AF384600F092F9B06B00235B
:101B2000012404FA03F22A42014604D051F8042B9E
:101B300047F8232008460133042BF2D1B06338461E
:101B400000F074F9002043B0BDE8F083032C40F0AE
:101B50008B8094B204EB1243102B4FEA124500F233
:101B6000838003681F0700F1D08020AF384600F063
:101B70003BF907EBC501B56B54B10B46E81A01EB15
:101B8000C401E4001A5843F8042B8B42FAD12544CF
:101B90003846B56300F006F9002043B0BDE8F08395
:101BA000012C4FEA124895B25AD0052C5CD108EBB3
:101BB0000509B9F1200F57D8B8F10F0F77D9A94609
:101BC000002D40F08880B36B6DB320AF4FF000095B
:101BD00007EBC807043F03EBC50553F8041B47F8A0
:101BE000041FAB42F9D1B9F1000F0FD06F46414647
:101BF000102938BF102107EBC101843903EBC90557
:101C000053F8040B41F8040FAB42F9D1012C00F05A
:101C10008480B8F10F0FB56345D9B9F1000F02D038
:101C2000684600F0B7F8002043B0BDE8F083DCB9A7
:101C3000876B2346012094B206F1040C00FA03F2EC
:101C40002242394604D051F8042B4CF823200F4689
:101C50000133102BF2D115F40050E4D1B76304E046
:101C600008EB0503102B03D9022043B0BDE8F08335
:101C7000B8F10F0FF8D83368DA0706D5304623F0ED
:101C8000030340F8483B00F079F820AF384600F0F5
:101C900075F8B36B002D99D11D460435B5633846F0
:101CA00000F068F8BFE720A800F06CF8B5E7B9F1DC
:101CB000100F40D9A9F110093368D90708D523F0CE
:101CC0000103304643F0020340F8483B00F05EF861
:101CD000B9F1000F32D033685A0720D4B8F10F0F92
:101CE00025D96F463846C8F1100500F057F8002D89
:101CF000B36B7FF77CAF20AF6AE723F0100333604C
:101D000006F5E87000F09CF804E723F00803036090
:101D100000F5A87000F068F827E720AFBDE730466F
:101D200023F0040340F8D03B00F038F8D6E720A8B1
:101D300000F02CF8D5E74FF00009BDE7B8F10F0F20
:101D40003FF641AF20AF384600F020F8B36B002DCE
:101D50007FF43CAF384600F015F864E700F1340139
:101D600091E838009C46A6464CF8045D90E8FF0FC9
:101D7000E54600BD90EC210B704700BF80EC210BC5
:101D8000704700BF90EC200B704700BF80EC200B29
:101D9000704700BFD0EC200B704700BFC0EC200B99
:101DA000704700BFF0EC0201F0EC0211F0EC0221F0
:101DB000F0EC0231F0EC0241F0EC0251F0EC026187
:101DC000F0EC0271F0EC0281F0EC0291F0EC02A177
:101DD000F0EC02B1F0EC02C1F0EC02D1F0EC02E167
:101DE000F0EC02F1704700BFE0EC0201E0EC021100
:101DF000E0EC0221E0EC0231E0EC0241E0EC0251C7
:101E0000E0EC0261E0EC0271E0EC0281E0EC0291B6
:101E1000E0EC02A1E0EC02B1E0EC02C1E0EC02D1A6
:101E2000E0EC02E1E0EC02F1704700BFB0FC0181A0
:101E3000B0FC0191B0FC01A1B0FC01B1704700BF42
:101E4000A0FC0181A0FC0191A0FC01A1A0FC01B1BA
:101E5000704700BFEC4600B52DE900502DE9FF1F8B
:101E60004FF000032DE90C0001A9FFF7F1FBDDF8AD
:101E700040E012B0704700BFEC4600B52DE90050BD
:101E80002DE9FF1F4FF000032DE90C0001A9FFF71A
:101E900019FCDDF840E012B0704700BFEC4600B519
:101EA0002DE900502DE9FF1F4FF000032DE90C0034
:101EB00001A9FFF729FCDDF840E012B0704700BF30
:101EC000EC4600B52DE900502DE9FF1F4FF000034F
:101ED0002DE90C0001ABFFF7EBFBDDF840E012B0A1
:101EE000704700BFEC4600B52DE900502DE9FF1FFB
:101EF0004FF000032DE90C0001AAFFF75DFCDDF8AF
:101F000040E012B0704700BF027A7AB9437AA3B1B9
:101F10004268013B10B4437213680321141D01721F
:101F20001A024460026010BC180E70470368013A40
:101F300002721A020260180E7047B020704700BF8C
:101F400000B585B003AA0023009219460C22FFF7C2
:101F5000EBFB039805B05DF804FB00BFF0E700BFA2
:101F60002DE9F043054685B00E464FF00008304697
:101F7000FFF7CAFFB028044600F0B280070620D55C
:101F800000F0F003802B4DD0902B36D0A02B60D0EA
:101F9000B02B74D0C02B00F08B8000F0F803D02B56
:101FA0000BD100F00702013242F400220523012187
:101FB0002846FFF797FD0028D9D0092005B0BDE8D5
:101FC000F0830DF10C09002319468700CDF800902D
:101FD0000D222846FFF7A8FBFFB2039BCDF8009027
:101FE000043760064CBFDF1BFF18002319460D2283
:101FF00028460397FFF7BCFBB9E700F00D030D2B54
:10200000DBD003AF002300F00F02194600972846EB
:10201000FFF78AFB0023009719460D222846FFF799
:10202000A7FBA4E73046FFF76FFF24022043B0F57B
:10203000004FC2D004010023A2B219462846FFF780
:1020400051FD0028B9D114F4004F18BF4FF001081A
:102050008DE7C24302F007034FF47F621A41010784
:1020600002F47F624FF0000348BF42F480421946F9
:102070002846FFF737FD00283FF479AF9DE7B128E8
:1020800033D0B22800F08B80B32839D000F0FC03A5
:10209000B42B92D000F007020132012342F4002257
:1020A00019462846FFF71EFD00283FF460AF84E77D
:1020B000C62842D0C7284CD000F0F803C02B5BD014
:1020C000C82860D0C9287FF478AF3046FFF71CFFDE
:1020D000020300F00F0002F470220130024365E7B2
:1020E000B8F1000F18D0002068E73046FFF70CFF6A
:1020F000024600283FF461AF10F0F003D0D05CE757
:102100003046FFF701FF010300F00F0001F47021DA
:10211000421C01230A43C3E703AC43460E22414657
:1021200000942846FFF700FB0094284643460F2200
:102130004146FFF71DFB404640E73046FFF7E4FE0F
:10214000010300F00F0001F47021421C03230A4335
:10215000A6E73046FFF7D8FE024600283FF42DAF31
:1021600010F0F0037FF429AF04212846FFF7BAFCF2
:1021700000283FF4FCAE20E700F00F0201320323F9
:1021800042F420228CE73046FFF7BEFE00F0F0025A
:1021900000F00F031032013343EA023206E7002356
:1021A0000DF10C090D221946CDF800902846FFF7D5
:1021B000BBFA3046FFF7A8FE02064FF002070CD527
:1021C000039B00F07F00B840034430460393FFF7C1
:1021D0009BFE030607F10707F2D4039BCDF800909E
:1021E00000F07F0403F50172BC400023144419463B
:1021F0000D2228460394FFF7BBFAB8E610B5C26C6F
:1022000084B0536803248DF80C401B0202F10804CB
:102210000846D279019301A902948DF80D20FFF7A9
:102220009FFE04B010BD00BF08B5FFF797FE806C9D
:1022300008BD00BF08B5FFF791FEC06CC37902333B
:1022400000EB830008BD00BF704700BF844641EA31
:10225000000313F003036DD1403A41D351F8043B1E
:1022600040F8043B51F8043B40F8043B51F8043B70
:1022700040F8043B51F8043B40F8043B51F8043B60
:1022800040F8043B51F8043B40F8043B51F8043B50
:1022900040F8043B51F8043B40F8043B51F8043B40
:1022A00040F8043B51F8043B40F8043B51F8043B30
:1022B00040F8043B51F8043B40F8043B51F8043B20
:1022C00040F8043B51F8043B40F8043B51F8043B10
:1022D00040F8043B51F8043B40F8043B403ABDD27F
:1022E000303211D351F8043B40F8043B51F8043B21
:1022F00040F8043B51F8043B40F8043B51F8043BE0
:1023000040F8043B103AEDD20C3205D351F8043BAF
:1023100040F8043B043AF9D2043208D0D2071CBF7B
:1023200011F8013B00F8013B01D30B8803806046A4
:10233000704700BF082A13D38B078DD010F003031A
:102340008AD0C3F10403D21ADB071CBF11F8013B8A
:1023500000F8013B80D331F8023B20F8023B7BE7D9
:10236000043AD9D3013A11F8013B00F8013BF9D204
:102370000B7803704B7843708B788370604670479E
:1023800001F0FF01102A2BDB10F0070F08D010F826
:10239000013B013A8B422DD010F0070F42B3F6D12A
:1023A000F0B441EA012141EA014122F007047FF043
:1023B00000070023F0E80256083C85EA010586EA9A
:1023C000010685FA47F5A3FA87F586FA47F6A5FAD6
:1023D00087F68EB9EED1F0BC01F0FF0102F00702E2
:1023E00032B110F8013B013A83EA010313B1F8D18D
:1023F0000020704701387047002D06BF354603386E
:10240000073815F0010F07D1013015F4807F02BFA6
:10241000013015F4C03F0130F0BC0138704700BFF7
:1024200000000000000000000000000000000000AC
:10243000000000000000000000000000000000009C
:1024400090F800F06DE9024520F007016FF0000CF4
:1024500010F0070491F820F040F049804FF000049C
:102460006FF00700D1E9002391F840F000F1080077
:1024700082FA4CF2A4FA8CF283FA4CF3A2FA8CF3AF
:102480004BBBD1E9022382FA4CF200F10800A4FA16
:102490008CF283FA4CF3A2FA8CF3E3B9D1E904236A
:1024A00082FA4CF200F10800A4FA8CF283FA4CF3A1
:1024B000A2FA8CF37BB9D1E9062301F1200182FA5B
:1024C0004CF200F10800A4FA8CF283FA4CF3A2FA61
:1024D0008CF3002BC6D0002A04BF04301A4612BA6F
:1024E000B2FA82F2FDE8024500EBD2007047D1E972
:1024F000002304F00305C4F100004FEAC50514F001
:10250000040F91F840F00CFA05F562EA05021CBFD1
:1025100063EA050362464FF00004A9E780B586B080
:1025200000AF786026497A6813465B0013449B002D
:102530000B4409331B78002B27D107F108031846F9
:1025400008F026FC0323FB721D497A6813465B00E2
:1025500013449B000B441B6807F108021146184600
:1025600008F028FC16497A6813465B0013449B0068
:102570000B44093303221A707A6813465B00134434
:102580009B000F4A13447B6115E00D497A6813469E
:102590005B0013449B000B4409331B78032B08D1C9
:1025A0007A6813465B0013449B00054A13447B6121
:1025B00001E000237B617B6918461837BD4680BD6A
:1025C0003804002080B485B000AFF8600B467A6014
:1025D000FB7200BF1437BD465DF8047B70470000F6
:1025E00080B58AB000AFF860B9601346FB71FB6834
:1025F000FB61FB69002B3AD0FB691B7A3B7500231A
:10260000BB7500237B75FB691B680121184608F028
:1026100019FCFB691868FB695B6807F1140219462D
:1026200008F030FCFB691A68FB695B6819461046C4
:1026300008F044FCFB691A68FB695B6819461046A0
:1026400008F060FC03467B837B8B07EE903AF8EE44
:10265000677A17EE900AFEF78BF90DA3D3E90023F2
:10266000FEF7DEF902460B46C7E9082305E04FF006
:1026700000024FF00003C7E90823B968D7E908232F
:10268000C1E9002300BF2837BD4680BDAFF30080FD
:10269000100010001000F03E80B483B000AF7860EE
:1026A00000BF0C37BD465DF8047B704780B483B033
:1026B00000AF786000BF0C37BD465DF8047B704703
:1026C00080B483B000AF786000BF0C37BD465DF8C2
:1026D000047B704780B584B000AFF860B9607A6061
:1026E000BB680F2B06D90A4B0A4A40F2E2210A487E
:1026F0000AF05CFDFA68BB685B01134403F5805384
:1027000010337A681A6000BF1037BD4680BD00BF25
:102710009CFD0000C8FF0000C8FD000080B584B02B
:1027200000AFF860B9601346FB71BB680F2B06D988
:102730000D4B0E4A4FF460710D480AF037FDBB682F
:102740005B0103F580531833FA681344043303F133
:10275000424303F580135B010433FA7992B21A8085
:1027600000BF1037BD4680BD9CFD0000E4FF0000A7
:10277000C8FD000090B587B000AFF8607A603B609C
:102780000B46FB7200237B61FB681B68032B00F088
:10279000E481032B05D8012B00F09880022B00F078
:1027A0004781954B00221A60934B1B68934A52F85D
:1027B0002330002B41D1904B1B68914ADB0013441E
:1027C00000229A718C4B1B688D4ADB001344002257
:1027D0001A71894B1B688A4ADB00134400225A7124
:1027E000854B1B68864A4FF4E13142F83310824B27
:1027F0001B68184605F006FF7F4B1B689B01814A4A
:1028000013448149184608F081FD7B4B18687A4BC8
:102810001A6813461B019B1A9B007C4A9918764B39
:102820001B68DB00764A13441A4609F06FFE724BB0
:102830001B68724A012142F823107B68B3F1FF3F05
:1028400020D06D4B1A68724913469B0013449B00BD
:102850000B4422221A60684B1A686D4913469B008C
:1028600013449B000B4408336A4A1A60624B1A688F
:10287000674913469B0013449B000B440C33664A84
:102880001A6015E05C4B1A68614913469B001344BB
:102890009B000B4404331A221A60574B1A685C4998
:1028A00013469B0013449B000B4410335B4A1A6091
:1028B000514B1B68504A1268594941F823204E4B2E
:1028C0001B689B00564A13447B61DBE14A4B0122A3
:1028D0001A60494B1B68494A52F82330002B41D1FA
:1028E000454B1B68464ADB00134400229A71424B59
:1028F0001B68434ADB00134400221A713E4B1B68DD
:102900003F4ADB00134400225A713B4B1B683C4A90
:102910004FF4E13142F83310374B1B68184605F08D
:1029200071FE354B1B689B01364A134436491846E5
:1029300008F0ECFC304B18682F4B1A6813461B014B
:102940009B1A9B00314A99182B4B1B68DB002C4AC1
:1029500013441A4609F0DAFD274B1B68274A012168
:1029600042F823107B68B3F1FF3F20D0224B1A6856
:10297000274913469B0013449B000B4400221A6016
:102980001D4B1A68224913469B0013449B000B44BD
:102990000833244A1A60184B1A681D4913469B00D5
:1029A00013449B000B440C331F4A1A6015E0124B72
:1029B0001A68174913469B0013449B000B440433C9
:1029C00000221A600C4B1A68114913469B001344ED
:1029D0009B000B441033154A1A60074B1B68064ACC
:1029E00012680F4941F82320034B1B689B000C4AD7
:1029F00013447B6146E100BFD4140020D8140020AA
:102A0000F41300200C110020780600208C12002006
:102A10002C140020A8100020CC100020F010002062
:102A2000BC140020F0100020F01000200C11002039
:102A3000AD4B02221A60AC4B1B68AC4A52F82330F3
:102A4000002B41D1A84B1B68A94ADB00134400228C
:102A50009A71A54B1B68A64ADB00134400221A7129
:102A6000A14B1B68A24ADB00134400225A719E4B03
:102A70001B689F4A4FF4E13142F833109A4B1B68B0
:102A8000184605F0BFFD984B1B689B01994A1344FB
:102A90009949184608F03AFC934B1868924B1A680B
:102AA00013461B019B1A9B00944A99188E4B1B6876
:102AB000DB008F4A13441A4609F028FD8A4B1B6835
:102AC0008A4A012142F823107B68B3F1FF3F20D0EE
:102AD000854B1A688A4913469B0013449B000B449C
:102AE00000221A60804B1A68854913469B001344E4
:102AF0009B000B440833834A1A607B4B1A68804959
:102B000013469B0013449B000B440C337E4A1A600F
:102B100015E0754B1A687A4913469B0013449B00D5
:102B20000B44043300221A606F4B1A687449134631
:102B30009B0013449B000B441033744A1A606A4B89
:102B40001B68694A1268724941F82320664B1B686A
:102B50009B006F4A13447B6194E0634B03221A602D
:102B6000614B1B68614A52F82330002B41D15E4B08
:102B70001B685F4ADB00134400229A715A4B1B68A2
:102B80005B4ADB00134400221A71574B1B68584AFA
:102B9000DB00134400225A71534B1B68544A4FF414
:102BA000E13142F83310504B1B68184605F02AFDFE
:102BB0004D4B1B689B014F4A13444F49184608F080
:102BC000A5FB494B1868484B1A6813461B019B1A12
:102BD0009B004A4A9918444B1B68DB00444A134443
:102BE0001A4609F093FC404B1B68404A012142F809
:102BF00023107B68B3F1FF3F20D03B4B1A6840495C
:102C000013469B0013449B000B4400221A60364B72
:102C10001A683B4913469B0013449B000B4408333E
:102C20003C4A1A60304B1A68354913469B001344DE
:102C30009B000B440C33384A1A6015E02A4B1A6883
:102C40002F4913469B0013449B000B44043300227E
:102C50001A60254B1A682A4913469B0013449B00AF
:102C60000B4410332D4A1A601F4B1B681E4A126812
:102C7000274941F823201C4B1B689B00244A13441E
:102C80007B6100BF7B68B3F1FF3F27D0164B1A680A
:102C900013461B019B1A9B002833184A1344043324
:102CA000114A12681E49184608F072FB0E4B18684C
:102CB0000D4B1A68124913469B0013449B000B44AA
:102CC00008331968084B1A680D4C13469B001344CF
:102CD0009B0023441B681A4600F0E0F87B69184605
:102CE0001C37BD4690BD00BFD4140020D81400206E
:102CF000F41300200C110020780600208C12002014
:102D00002C140020F0100020F01000200C110020E6
:102D1000BC140020F0100020F01000200C11002046
:102D2000492F000080B483B000AF78603960002381
:102D300018460C37BD465DF8047B704780B483B0FD
:102D400000AF7860084611461A460346FB700B46F2
:102D5000BB7013467B70002318460C37BD465DF8E8
:102D6000047B704780B586B000AFF860B9607A60C8
:102D7000FB683B613B69002B33D03B691B681F4AF2
:102D8000D35C012B2DD13B691B681D4A52F82330BF
:102D9000012B0FD13B691A681A4913469B00134453
:102DA0009B000B4408331B687A681946B868FFF724
:102DB0004DFA0EE03B691A68124913469B00134412
:102DC0009B000B440C331B687A681946B868FFF700
:102DD0003DFA3B691B68094A0021D1540023FB7569
:102DE00006E07A680021B8680AF022FD2023FB750E
:102DF000FB7D18461837BD4680BD00BF2414002057
:102E0000A41400202C14002080B586B000AFF86018
:102E1000B9607A60FB683B613B69002B2AD03B6953
:102E20001B680021184609F0C5FC0346082B21D079
:102E30003B691A68134913469B0013449B000B44DB
:102E400010331B687A68B9681846FFF7FFF93B69C9
:102E500018683B691A680B4913469B0013449B0092
:102E60000B4410331B687A68194609F07FFC03464F
:102E7000FB7501E02023FB75FB7D18461837BD4626
:102E800080BD00BF2C14002080B483B000AF7860F8
:102E900000BF0C37BD465DF8047B704780B588B035
:102EA00000AFF860B9607A60FB68052B06D9214B4A
:102EB000214A40F2891121480AF078F9204AFB683A
:102EC00052F82330FB61FB6993F82C301B09DBB20D
:102ED0001A461C4B53F82230BB61FB6993F82C3027
:102EE00003F00F037B61FB695B78DBB2002B01D041
:102EF00009231AE0FB6901225A70BB681A467969F6
:102F0000B869FFF7E7FB7A687969B86908F03CF9B6
:102F100001227969B869FFF701FC7B69DBB2012204
:102F20001946B86908F01BF8002318462037BD463B
:102F300080BD00BF00FE0000A4FF000020FE0000D6
:102F4000AC4800209C07010080B582B000AF7860DB
:102F50000B46FB707B68184600F004F800BF08378A
:102F6000BD4680BD80B586B000AF78607B68052B1C
:102F700006D93C4B3C4A40F2AD113C480AF016F9E8
:102F80003B4A7B6852F823307B617B6993F82C3095
:102F90001B09DBB21A46374B53F822303B617B6981
:102FA00093F82C3003F00F03FB600022F9683869B6
:102FB000FFF7B4FBFB68DBB200221946386907F063
:102FC000CEFF7B69DB78DBB2002B04D07B6910334A
:102FD000184607F00DFC7B6900225A70264A7B6870
:102FE000134401221A70254A7B6852F82330002BC3
:102FF0001AD123497A6813469B0013449B000B4463
:103000000C3319681E487A6813469B0013449B00D2
:1030100003441B681A467868FFF740FF174A7B682D
:10302000012142F8231019E015497A6813469B00E4
:1030300013449B000B440833196811487A681346FF
:103040009B0013449B0003441B681A467868FFF7F3
:1030500025FF0A4A7B68002142F8231000BF183779
:10306000BD4680BD00FE0000FCFF000020FE000009
:10307000AC4800209C07010024140020A414002068
:103080002C14002080B590B000AF78600B46FB7028
:10309000FB78002B27D107F1240300221A605A6025
:1030A0009A60DA601A615A612D4A7B6852F83330AF
:1030B0007B62012387F82830012387F829304FF0FD
:1030C000FF333B6307F12403184608F0EBFB244A67
:1030D0007B68DB00134401221A717B68DB00204A05
:1030E0001344FB6336E0FB78012B31D107F10C036D
:1030F00000221A605A609A60DA601A615A61184AAE
:103100007B6852F83330FB6001233B754FF0FF338F
:10311000BB6107F10C03184608F036FC104A7B68C7
:10312000DB00134402221A717B68292B0AD97B68C1
:103130002C2B07D80A4A7B6852F8333001211846F5
:1031400008F05EFC7B68DB00054A1344FB6301E08A
:103150000023FB63FB6B18464037BD4680BD00BFB4
:103160000000002080B586B000AF78607B683B61CE
:103170003B69002B0BD03B691B79012B07D13B69C5
:103180001B68184608F04AFC0346FB7501E0002363
:10319000FB753B691B681B0ADBB2FB603B691B6864
:1031A000DBB2BB60FB68022B02D1BB68062B05D0EB
:1031B000FB68002B09D1BB68042B06D1FB7D002BDB
:1031C0000CBF01230023DBB2FB75FB7D18461837CB
:1031D000BD4680BD80B586B000AF78600B46FB7001
:1031E0007B687B617B69002B2FD07B691B79022B6D
:1031F0002BD17B691B681B0ADBB23B617B691B68B7
:10320000DBB2FB603B69012B05D1FB68162B08D0B4
:10321000FB68152B05D03B69042B0FD1FB681A2BDB
:103220000CD17B691A68FB78012B14BF01230023A2
:10323000DBB21946104608F0E3FB06E07B691B6829
:10324000FA781146184608F0DBFB00BF1837BD4678
:1032500080BD80B485B000AF78607B68FB60FB68A0
:10326000002B0ED0FB681B79022B03D1FB680022D8
:103270001A7106E0FB681B79012B02D1FB68002262
:103280001A7100BF1437BD465DF8047B704780B5E6
:1032900082B000AF786007F0B5FC034618460837E7
:1032A000BD4680BD80B483B000AF78607B680233D8
:1032B00003F1424303F580135B011C3301221A70B2
:1032C00000BF0C37BD465DF8047B704780B483B007
:1032D00000AF78607B68023303F1424303F580134B
:1032E0005B010C3300221A7000BF0C37BD465DF83D
:1032F000047B704780B483B000AF78607B68023392
:1033000003F1424303F580135B010C3301221A7071
:1033100000BF0C37BD465DF8047B704780B483B0B6
:1033200000AF78600B46FB707B68023303F14243C9
:1033300003F580135B0110331A46FB78137000BF4E
:103340000C37BD465DF8047B704780B483B000AF96
:1033500078607B681B79DBB218460C37BD465DF898
:10336000047B704780B483B000AF78600B46FB707D
:103370007B68FA781A7100BF0C37BD465DF8047B94
:10338000704780B483B000AF78600B46FB707B68F9
:10339000DB78DBB21A46FB7842FA03F303F0010351
:1033A000002B14BF01230023DBB218460C37BD46A7
:1033B0005DF8047B704780B483B000AF78607B68B1
:1033C000023303F1424303F580135B0114331B788E
:1033D000DBB2002B14BF01230023DBB218460C37ED
:1033E000BD465DF8047B704780B483B000AF786061
:1033F0000B46FB707B68023303F1424303F58013F5
:103400005B011833FA781A7000BF0C37BD465DF8BF
:10341000047B704780B483B000AF78607B68022281
:10342000DA7000BF0C37BD465DF8047B70470000C2
:1034300080B584B000AFF860B9601346FB71BB681B
:103440001F2B05D90B4B0C4AD9210C4809F0AEFEB5
:10345000BB689B00FA68134403F1424303F58013F1
:103460005B0114331A46FB79136000BF1037BD4669
:1034700080BD00BF88FE00004000010094FE0000F7
:1034800080B584B000AFF860B9601346FB71BB68CB
:103490001F2B05D90D4B0E4AFF210E4809F086FE61
:1034A000FB68BA6853F8223023F0807323F4E0639A
:1034B000FA79120202F4E06243EA0201FB68BA6898
:1034C00043F8221000BF1037BD4680BD88FE0000C3
:1034D0002C00010094FE000080B584B000AF78603D
:1034E0007B681B680F4A52F82330FB607B681B68BF
:1034F000184600F0EFF97B681B68184607F0F8FBE8
:10350000F86808F0A9FAF868FFF7CCFE0121F8681E
:10351000FFF76AFF0449786800F0FCF800BF103735
:10352000BD4680BD20000100A086010080B584B0AA
:1035300000AF78607B681B68054A52F82330FB6057
:10354000F86808F0CFFA002318461037BD4680BD52
:103550002000010080B584B000AF78600023BB601C
:103560007B681B680E4A52F82330FB60F868FFF74F
:1035700022FF0346002B02D0F86808F0C3FA0023AC
:10358000BB6004E000BF00BFBB680133BB60BB6829
:10359000C72BF7D9002318461037BD4680BD00BFA2
:1035A0002000010080B586B000AF78600B46FB704C
:1035B000104B3B617B681B680F4A52F82330FB605D
:1035C00000237B610CE0FB781946F868FFF7D9FE11
:1035D0000346002B01D0002307E07B6901337B61A8
:1035E0007A693B699A42EED3012318461837BD46E3
:1035F00080BD00BFA08601002000010080B584B01E
:1036000000AF78607B681B68104A52F82330FB607B
:1036100001217868FFF7C6FF0346002B01D0022383
:1036200010E0F868FFF7F6FE07217868FFF7BAFFA9
:103630000346002B01D0022304E00021F868FFF7C5
:10364000A0FE034618461037BD4680BD200001008D
:1036500080B584B000AF78607B681B680A4A52F876
:103660002330FB6001217868FFF79CFF0346002BA5
:1036700001D0012303E0F868FFF7CCFE00231846D1
:103680001037BD4680BD00BF2000010080B584B06A
:1036900000AF786039607B681B68094A52F82330B4
:1036A000FB603B68DBB21946F868FFF75BFE7868A1
:1036B000FFF7A4FF034618461037BD4680BD00BF84
:1036C0002000010080B586B000AFF860B9607A6074
:1036D000FB681B680E4A52F823307B617B68002B25
:1036E00003D07869FFF706FE02E07869FFF7EEFD88
:1036F0007869FFF72AFE03461A46BB681A70F86815
:10370000FFF7A6FF034618461837BD4680BD00BF29
:103710002000010080B584B000AF786039607B681C
:103720001B680E4A52F82330FB607B681B68184602
:10373000FFF7ADFD0346BB603B68094A82FB0312FD
:103740009211DB17D31A1A460023B968F86808F0FB
:1037500091F900BF1037BD4680BD00BF20000100B9
:10376000D34D621090B589B000AFF860B9607A604F
:103770003B60F868FFF7DAFE0346002B05D0F868D7
:10378000FFF7E8FE6FF0010355E0BB6843F001036B
:103790001946F868FFF77AFF0346002B05D0F86852
:1037A000FFF7D8FE4FF0FF3345E0FB681B68244A63
:1037B00052F82330BB610021B869FFF7AFFD002349
:1037C000FB6124E0FB69002B02D107F1120303E047
:1037D000FB69013B7A6813447B613B68013BFA69F2
:1037E0009A420CBF01230023DBB2FB74FB7C1A4618
:1037F0007969F868FFF766FF0346002B04D0F86884
:10380000FFF7A8FEFB6916E0FB690133FB61FA696B
:103810003B689A42D6DB3B6B002B02D0F868FFF77F
:1038200099FEFB69013B7A68D418B869FFF78DFDF2
:10383000034623703B6818462437BD4690BD00BF41
:103840002000010080B586B000AFF860B9607A60F2
:103850003B60F868FFF76AFE0346002B05D0F86866
:10386000FFF778FE6FF0010330E0BB6803F0FE0362
:103870001946F868FFF70AFF0346002B05D0F868E1
:10388000FFF768FE4FF0FF3320E000237B6112E07A
:103890007B697A6813441B781946F868FFF7F6FECF
:1038A0000346002B04D0F868FFF754FE7B690DE057
:1038B0007B6901337B617A693B689A42E8DB3B6A4A
:1038C000002B02D0F868FFF745FE3B681846183712
:1038D000BD4680BD80B582B000AF78607B68002BAC
:1038E00003D07B68012B15D029E00522182116484A
:1038F000FFF7C6FD012218211348FFF799FD0522A5
:1039000019211148FFF7BCFD012219210E48FFF7CC
:103910008FFD14E002220A210C48FFF7B1FD0122BD
:103920000A210A48FFF784FD02220B210748FFF70E
:10393000A7FD01220B210548FFF77AFD00BF00BF5C
:103940000837BD4680BD00BF00D0044000B0044031
:1039500080B584B000AF78600B46FB707B68012BAC
:1039600011D80C497B687A6841F823207B689B005A
:10397000084A13441846FFF7AFFD7B689B00054AD1
:103980001344FB6001E00023FB60FB68184610371E
:10399000BD4680BDF014002080B584B000AF7860D3
:1039A00039607B68002B07D03B6819467868FFF7C1
:1039B000B1FE0023FB7301E00823FB73FB7B184679
:1039C0001037BD4680BD80B588B002AFF8607A6020
:1039D0003B600B467B8100237B6197F82030002BF6
:1039E0000CBF01230023DBB23B61FB68002B19D025
:1039F0007B8959003A683B69009313467A68F868F6
:103A0000FFF7B0FE03467B617B6913F1020F01D122
:103A1000012308E07B69B3F1FF3F01D1042302E0F9
:103A2000002300E0082318461837BD4680BD80B546
:103A300088B002AFF8607A603B600B467B81002360
:103A40007B6197F82030002B0CBF01230023DBB2F1
:103A50003B61FB68002B19D07B8959003A683B69B0
:103A6000009313467A68F868FFF7ECFE03467B6123
:103A70007B6913F1020F01D1012308E07B69B3F1E7
:103A8000FF3F01D1042302E0002300E00823184691
:103A90001837BD4680BD80B483B000AF786000BFEA
:103AA0000C37BD465DF8047B7047000080B584B0DC
:103AB00000AFF860B9601346FB71BB681F2B05D9D6
:103AC0000D4B0E4AFF210E4809F070FBFB68BA68E7
:103AD00053F8223023F0807323F4E063FA79120262
:103AE00002F4E06243EA0201FB68BA6843F822107C
:103AF00000BF1037BD4680BDCCFE00005C00010059
:103B0000D8FE000080B483B000AF78600B46FB7035
:103B10007B681B6823F01802FB78DB0003F01803B6
:103B20001A437B681A6000BF0C37BD465DF8047B02
:103B30007047000080B58EB000AF786187ED020B52
:103B400087ED001B524A7B695B01134411331B78DC
:103B5000002B40F08780002387F82830002387F867
:103B60002930002387F82A308023FB62484A7B698A
:103B70005B0113441868464A7B695B0113440433B4
:103B80001968434A7B695B01134410331B781A465A
:103B9000FFF78CFF3E4A7B695B01134408331B68C7
:103BA00007F128021146184607F0A4FC384A7B6941
:103BB0005B01134408331B68DBB200220121184665
:103BC00007F01EFD324A7B695B0113441133042266
:103BD0001A702F4A7B695B01134403F11801D7E97E
:103BE0000223C1E9002302233B7600237B76284A87
:103BF0007B695B0113441833D3E90023104619464F
:103C0000FDF7E6F90346FB61D7E90001FDF7E0F9AE
:103C100003463B620023BB841D4A7B695B0113445E
:103C200008331B681B4A52F823303B630021386B72
:103C3000FFF768FF164A7B695B0113440833186875
:103C4000134A7B695B0113440C331B68DAB207F13A
:103C50001803194607F032FD7B695B010C4A1344D7
:103C60007B630FE00A4A7B695B01134411331B78C5
:103C7000042B05D17B695B01054A13447B6301E09A
:103C800000237B637B6B18463837BD4680BD00BF81
:103C900078010020DC09010080B483B000AF7860B7
:103CA00000BF0C37BD465DF8047B704780B58AB015
:103CB00000AFF86087ED000BFB687B627B6A002B2E
:103CC0002CD07B6A5B7C042B28D102233B7400231D
:103CD0007B747B6AD3E9062310461946FDF778F911
:103CE00003467B61D7E90001FDF772F90346BB612A
:103CF0000023BB837B6A9B680A4A52F823303B62ED
:103D00000021386AFFF7FEFE7B6A98687B6ADB68F1
:103D1000DAB207F11003194607F0D0FC00BF2837CC
:103D2000BD4680BDDC09010080B485B000AF78607D
:103D30007B68FB60FB68002B06D0FB685B7C042B78
:103D400002D1FB6800225A7400BF1437BD465DF8EB
:103D5000047B704780B483B000AF786000BF0C373D
:103D6000BD465DF8047B704780B586B000AF7861D2
:103D7000184B1B681B68002B0CBF01230023DBB210
:103D80001A46154B1A7011E03B461449184605F0C7
:103D90000AF801F069FD0F4B1B681B68002B14BF6C
:103DA00001230023DBB21A460D4B1A700A4B1B7815
:103DB000DBB2002BE8D1084B00221A70786900F0C2
:103DC00011F8002004F048FF002318461837BD46BC
:103DD00080BD00BF700001007A060020041500209D
:103DE000F814002080B582B000AF7860074B012244
:103DF0001A60074B00221A7003F04EFD054804F0CC
:103E0000BFFF002318460837BD4680BD201500209F
:103E10007A060020FC14002080B586B000AF7861DF
:103E2000396104F0BFF904F087FB0A4B1B680022DC
:103E30001A6003F0DDFA00209FED070A04F05EFE31
:103E40003B460649184604F0AEFF002318461837D3
:103E5000BD4680BD700001006F12833AFC14002043
:103E600080B400AF25494FF00002254BC1E9322351
:103E7000224BD3F83431214AC2F83C311F4BD3F8DE
:103E800038311E4AC2F840311C494FF000021C4B29
:103E9000C1E9222319494FF00002194BC1E92C2333
:103EA00016494FF000024FF00003C1E92A231349DD
:103EB0004FF000024FF00003C1E924230F494FF0F7
:103EC00000024FF00003C1E926230C494FF0000225
:103ED0004FF00003C1E9282308494FF000024FF0DA
:103EE0000003C1E92E2305494FF00002044BC1E94C
:103EF000302300BFBD465DF8047B704728150020C5
:103F00000000F03F80B584B000AF7860B94B93F803
:103F10007531082B10D0B84B002283F88C22B64B99
:103F2000002283F88D22B44B002283F88B22B24BFF
:103F3000052283F880225CE20023FB730023BB731D
:103F400000237B73AC4B93F88B32013B042B00F2C4
:103F5000578101A252F823F06D3F00002740000076
:103F60003D4000007F410000AF410000A1494FF0FB
:103F70000002A24BC1E932239E494FF000029F4B41
:103F8000C1E922239B494FF000029C4BC1E92C233D
:103F900098494FF000024FF00003C1E924239549EE
:103FA0004FF000024FF00003C1E9262391494FF082
:103FB00000024FF00003C1E92E238E494FF00002AA
:103FC0008E4BC1E930238C4BD3E994014FF00002B2
:103FD0004FF00003FCF78CFF0346002B20D07B68DA
:103FE0001B78002B02D00123FB732DE1824BD3F809
:103FF000743207EE903AB8EE677A7F4BD3ED9C6A45
:104000007C4BD3ED497A76EEE77AB4EEE77AF1EEBF
:1040100010FA02DB0123BB7316E101237B7313E16A
:1040200001237B7310E1744B012283F88B22724BC6
:104030000022C3F87422FFF713FF05E16D494FF02A
:1040400000024FF00003C1E922236A494FF0000249
:104050006A4BC1E92C2367494FF000024FF000037F
:10406000C1E92E2363494FF000024FF00003C1E97C
:10407000262360494FF000024FF00003C1E92423DA
:104080005C494FF000024FF00003C1E930235A4B66
:10409000D3F8743207EE903AB8EE677A554BD3ED09
:1040A000497AB4EEE77AF1EE10FA00DACBE0524B3F
:1040B00093ED9C7A4F4B93F8723107EE903AF8EEFD
:1040C000E77AB4EEE77AF1EE10FA17DD4A4B0522F3
:1040D00083F88B22484B012283F88C22464B93EDC8
:1040E0009C7A444B93F8773107EE903AF8EE677A72
:1040F00077EE677A404BC3ED9C7AA4E03E4B93ED9C
:104100009C7A3C4B93F8723107EE903AF8EEE77ADE
:10411000B4EEE77AF1EE10FA17D5374B052283F8A3
:104120008B22354B022283F88C22334B93ED9C7A01
:10413000304B93F8773107EE903AF8EE677A77EEE6
:10414000277A2D4BC3ED9C7A7DE02B4B93ED9C7A27
:10415000284B93F8723107EE903AF8EEE77AB4EE16
:10416000677AF1EE10FA6ED1234B012283F88B228D
:10417000214B0022C3F87422FFF772FE63E01E4B4E
:10418000D3E998014FF000024FF00003FCF7B0FEB6
:104190000346002B00D157E0174B012283F88B22F6
:1041A000154B0022C3F87422FFF75AFE4CE0124B65
:1041B00093F88C32012B0ED10F4B002283F88C2206
:1041C0000D4B012283F88B220B4B0022C3F8742283
:1041D000FFF746FE38E0084B002283F88C22064B9E
:1041E000012283F88B22044B0022C3F87422FFF7CC
:1041F00037FE29E028150020A81600200000F03F17
:104200007E4B93F88D32012B0ED17C4B002283F82C
:104210008D227A4B042283F88B2278494FF00002DA
:10422000774BC1E994230FE0744B002283F88D2271
:10423000724B042283F88B2270494FF00002704BBE
:10424000C1E9942300E000BF7B7B002B00F0988045
:104250006A4BD3E994014FF00002694BFCF748FE2A
:104260000346002B00F08C80644BD3F87432654A0F
:10427000B2F856219342C0F08380604BD3F8743279
:1042800007EE903AB8EE677A5C4BD3ED9C6A5D4BD3
:10429000D3ED497A76EEE76A5A4BB3F8563107EE1A
:1042A000903AF8EE677A76EEE77AB4EEE77AF1EED6
:1042B00010FA02DB0123BB7362E07B681B78002BE2
:1042C0005ED04E4B93ED9C7A4E4B93F8723107EED5
:1042D000903AF8EEE77AB4EEE77AF1EE10FA17DDED
:1042E000464B062283F88B22444B012283F88D2211
:1042F000424B93ED9C7A434B93F8773107EE903A1B
:10430000F8EE677A77EE677A3C4BC3ED9C7A37E03C
:104310003A4B93ED9C7A3B4B93F8723107EE903A0F
:10432000F8EEE77AB4EEE77AF1EE10FA17D5334BF0
:10433000062283F88B22314B022283F88D222F4BE9
:1043400093ED9C7A2F4B93F8773107EE903AF8EE85
:10435000677A77EE277A294BC3ED9C7A10E0274BDA
:1043600093ED9C7A274B93F8723107EE903AF8EE72
:10437000E77AB4EE677AF1EE10FA01D10123FB730C
:10438000BB7B002B28D01D4B032283F88B221B4BB9
:104390000022C3F874221B494FF000024FF00003C3
:1043A000C1E9222317494FF000024FF00003C1E991
:1043B000282314494FF000024FF00003C1E93023D5
:1043C00010494FF000020E4BC1E92A230B494FF070
:1043D00000020B4BC1E99423FB7B002B09D0074B58
:1043E000042283F88B2205494FF00002044BC1E9F7
:1043F000942300BF1037BD4680BD00BFA816002023
:104400000000F03F2815002080B400AF25494FF090
:104410000002254BC1E93223224BD3F82C31214A2B
:10442000C2F844311F4BD3F830311E4AC2F8403134
:104430001C494FF000021C4BC1E9222319494FF0DF
:104440000002194BC1E92C2316494FF000024FF02E
:104450000003C1E9282313494FF000024FF0000385
:10446000C1E924230F494FF000024FF00003C1E9D6
:1044700026230C494FF000020B4BC1E92E230949BA
:104480004FF000024FF00003C1E9302305494FF01F
:1044900000024FF00003C1E92A2300BFBD465DF8CA
:1044A000047B7047281500200000F03F80B400AF67
:1044B00028494FF00002284BC1E93223254BD3F89D
:1044C0002C31244AC2F84431224BD3F83031214AEE
:1044D000C2F840311F494FF000021F4BC1E92223AF
:1044E0001C494FF000021C4BC1E92C2319494FF025
:1044F00000024FF00003C1E9282316494FF00002E3
:104500004FF00003C1E9242312494FF000024FF09D
:104510000003C1E926230F494FF000020E4BC1E909
:104520002E230C494FF000024FF00003C1E9302365
:1045300008494FF000024FF00003C1E92A23074960
:104540004FF00002064BC1E99A2300BFBD465DF85B
:10455000047B7047281500200000F03FA8160020BB
:104560000000594080B52DED028B84B000AF78601B
:10457000BE4B93F87531072B14D0BD4B002283F846
:104580008322BB4B002283F88422B94B002283F89C
:104590008522B74B002283F88222B54B052283F88F
:1045A00080225EE30023FB730023BB7300237B7335
:1045B00000233B730023FB72AD4B93F88232013B27
:1045C000062B00F29F8101A252F823F0E94500007A
:1045D00045460000FF460000154700002B4700003D
:1045E00079480000BF480000A14BD3E998014FF083
:1045F00000024FF00003FCF77BFC0346002B0AD0BF
:104600009B4B022283F88222994B0022C3F874222A
:10461000FFF74CFF9AE1964BD3E998014FF0000267
:10462000944BFCF765FC0346002B00D18EE1904BC8
:10463000032283F882228E494FF000028D4BC1E99C
:10464000922383E189494FF000028A4BC1E932236A
:1046500086494FF00002874BC1E9222383494FF07E
:104660000002844BC1E92C2380494FF000024FF037
:104670000003C1E924237D494FF000024FF00003FD
:10468000C1E9262379494FF000027A4BC1E92E2374
:1046900076494FF000024FF00003C1E93023744B1C
:1046A000D3E996014FF000024FF00003FCF720FC25
:1046B0000346002B20D07B681B78002B02D00123FF
:1046C000FB7343E16A4BD3F8743207EE903AB8EECD
:1046D000677A674BD3ED9C6A644BD3ED4A7A76EEEA
:1046E000E77AB4EEE77AF1EE10FA02DB0123BB734E
:1046F0002CE10123FB7229E10123FB7226E15C4BD3
:10470000022283F882225A4B0022C3F87422FFF758
:10471000CDFE1BE1564B022283F88222544B00222D
:10472000C3F87422FFF7C2FE10E150494FF00002B7
:104730004FF00003C1E922234C494FF000024D4BDA
:10474000C1E92C2349494FF000024FF00003C1E9B1
:10475000242346494FF000024FF00003C1E926230D
:1047600042494FF000024FF00003C1E92E233F49B8
:104770004FF000024FF00003C1E930233C4BD3F867
:10478000743207EE903AB8EE677A384BD3ED4A7A36
:10479000B4EEE77AF1EE10FA00DAD6E0344B93ED9E
:1047A0009C7A324B93F8723107EE903AF8EEE77A42
:1047B000B4EEE77AF1EE10FA17DD2D4B062283F8FE
:1047C00082222B4B012283F88322294B93ED9C7A82
:1047D000264B93F8773107EE903AF8EE677A77EE4A
:1047E000677A234BC3ED9C7AAFE0214B93ED9C7A23
:1047F0001E4B93F8723107EE903AF8EEE77AB4EE7A
:10480000E77AF1EE10FA17D5194B062283F88222C7
:10481000174B022283F88322154B93ED9C7A134B9E
:1048200093F8773107EE903AF8EE677A77EE277AC9
:104830000F4BC3ED9C7A88E00D4B93ED9C7A0B4BAC
:1048400093F8723107EE903AF8EEE77AB4EE677AB1
:10485000F1EE10FA79D1064B022283F88222044B42
:104860000022C3F87422FFF721FE6EE02815002015
:10487000A81600200000F03FC24B93F88332012BB2
:104880000ED1C04B002283F88322BE4B022283F854
:104890008222BC4B0022C3F87422FFF707FE55E0CA
:1048A000B84B002283F88322B64B022283F882227F
:1048B000B44B0022C3F87422FFF7F8FD46E0B14B79
:1048C00093F88432012B0ED1AE4B002283F8842260
:1048D000AC4B012283F88222AA494FF00002AA4B76
:1048E000C1E9962332E0A74B002283F88422A54B2E
:1048F000012283F88222A3494FF00002A24BC1E9B2
:10490000962323E09F4B93F88532012B0ED19D4BCC
:10491000002283F885229B4B012283F88222994949
:104920004FF00002984BC1E996230FE0954B00220F
:1049300083F88522934B012283F8822291494FF01C
:104940000002914BC1E9962300E000BFFB7A002BE7
:1049500000F0A5808B4BD3E996014FF000028A4B03
:10496000FCF7C6FA0346002B00F09980854BD3F87C
:104970007432864AB2F858219342C0F09080814B3D
:10498000D3E992014FF000024FF00003FCF7B0FAB8
:104990000346002B00F081807A4BD3F8743207EE87
:1049A000903AB8EE677A774BD3ED9C6A774BD3EDAC
:1049B0004A7A76EEE77AB4EEE77AF1EE10FA02DBA5
:1049C0000123BB736BE07B681B78002B62D06D4BBF
:1049D00093ED9C7A6D4B93F8723107EE903AF8EEB6
:1049E000E77AB4EEE77AF1EE10FA17DD654B0822AC
:1049F00083F88222634B012283F88522614B93ED79
:104A00009C7A624B93F8773107EE903AF8EE677A2A
:104A100077EE677A5B4BC3ED9C7A40E0594B93EDA0
:104A20009C7A5A4B93F8723107EE903AF8EEE77A97
:104A3000B4EEE77AF1EE10FA17D5524B082283F85C
:104A40008222504B022283F885224E4B93ED9C7AB2
:104A50004E4B93F8773107EE903AF8EE677A77EE9F
:104A6000277A484BC3ED9C7A19E0464B93ED9C7A2C
:104A7000464B93F8723107EE903AF8EEE77AB4EECF
:104A8000677AF1EE10FA02D10123FB7307E00123EC
:104A90003B7304E001233B7301E001233B733B7B49
:104AA000002B7AD0374BD3E992014FF00002364BFE
:104AB000FCF71EFA0346002B6FD07B681B78002B97
:104AC00069D0304B93ED9C7A304B93F8723107EEFE
:104AD000903AF8EEE77AB4EEE77AF1EE10FA17DDE5
:104AE000284B072283F88222264B012283F8842256
:104AF000244B93ED9C7A254B93F8773107EE903A4F
:104B0000F8EE677A77EE677A1E4BC3ED9C7A44E045
:104B10001C4B93ED9C7A1D4B93F8723107EE903A43
:104B2000F8EEE77AB4EEE77AF1EE10FA17D5154B06
:104B3000072283F88222134B022283F88422114B2E
:104B400093ED9C7A114B93F8773107EE903AF8EE9B
:104B5000677A77EE277A0B4BC3ED9C7A1DE0094B01
:104B600093ED9C7A094B93F8723107EE903AF8EE88
:104B7000E77AB4EE677AF1EE10FA09D10123FB73FC
:104B80000BE000BFA81600200000F03F2815002011
:104B900001237B7301E001237B737B7B002B20D0FF
:104BA000334BD3F8743207EE903AB8EE678A304B45
:104BB00093ED9C7A2F4BD3ED4A7A77EE678A2C4B94
:104BC000D3E99A2310461946FCF722FA07EE900A19
:104BD00078EEA77AB4EEE78AF1EE10FA01DB012352
:104BE000BB73BB7B002B2FD0214B052283F8822285
:104BF0001F4B0022C3F874221E494FF000024FF0F1
:104C00000003C1E922231B494FF000024FF00003CB
:104C1000C1E92A2317494FF00002174BC1E92823A5
:104C200014494FF000024FF00003C1E92E23104950
:104C30004FF00002104BC1E996230D494FF00002DE
:104C40004FF00003C1E99223FB7B002B09D0084BF6
:104C5000012283F8822206494FF00002064BC1E987
:104C6000962300BF1037BD46BDEC028B80BD00BF50
:104C7000A8160020281500200000F03F80B400AFE7
:104C80001F4BD3F830311E4AC2F840311C494FF057
:104C900000021C4BC1E9222319494FF00002194BB5
:104CA000C1E92C2316494FF000024FF00003C1E97F
:104CB000282313494FF000024FF00003C1E92423D9
:104CC0000F494FF000024FF00003C1E926230C49C1
:104CD0004FF000020B4BC1E92E2309494FF00002AF
:104CE0004FF00003C1E9302305494FF000024FF0B7
:104CF0000003C1E92A2300BFBD465DF8047B70476D
:104D0000281500200000F03F80B500AFB14B93F8AC
:104D10007531052B08D0B04B002283F88722AE4BAB
:104D2000052283F8802253E1AB4B93F88732013B95
:104D3000032B00F2328101A252F823F04D4D000006
:104D40000D4E0000234E0000654F0000A1494FF0BA
:104D50000002A24BC1E922239E494FF000029F4B63
:104D6000C1E92C239B494FF000024FF00003C1E939
:104D7000242398494FF000024FF00003C1E9262395
:104D800094494FF00002954BC1E92E2391494FF011
:104D900000024FF00003C1E930238F4BD3F8743287
:104DA00007EE903AB8EE677A8B4BD3ED9C6A894B4D
:104DB000D3ED4A7A76EEE77AB4EEE77AF1EE10FABE
:104DC00000DA05E1844B032283F88722824B00221C
:104DD000C3F874227F494FF000024FF00003C1E98D
:104DE00022237C494FF000024FF00003C1E92A233F
:104DF00078494FF00002794BC1E9282375494FF0FB
:104E000000024FF00003C1E92E23E1E0724B0122C2
:104E100083F88722704B0022C3F87422FFF72EFF1D
:104E2000D6E06C494FF000024FF00003C1E92223A5
:104E300068494FF00002694BC1E92C2365494FF0E6
:104E400000024FF00003C1E9242362494FF0000241
:104E50004FF00003C1E926235E494FF000024FF0F6
:104E60000003C1E92E235B494FF000024FF000031D
:104E7000C1E93023584B93ED9C7A564B93F872312D
:104E800007EE903AF8EEE77AB4EE677AF1EE10FAB0
:104E900019D1514BD3F8743207EE903AB8EE677AD5
:104EA0004C4BD3ED4A7AB4EEE77AF1EE10FA0ADB16
:104EB000494B012283F88722474B0022C3F8742212
:104EC000FFF7DCFE84E0444B93ED9C7A414B93F872
:104ED000723107EE903AF8EEE77AB4EEE77AF1EE47
:104EE00010FA17D53C4B052283F887223A4B002253
:104EF000C3F87422384B93ED9C7A364B93F8773194
:104F000007EE903AF8EE677A77EE277A324BC3EDE8
:104F10009C7A5DE0304B93ED9C7A2E4B93F8723186
:104F200007EE903AF8EEE77AB4EEE77AF1EE10FA8F
:104F300000DC4DE0284B042283F88722264B002218
:104F4000C3F87422244B93ED9C7A224B93F877316B
:104F500007EE903AF8EE677A77EE677A1E4BC3ED6C
:104F60009C7A35E01C4BD3F8743207EE903AB8EED9
:104F7000677A184BD3ED4A7AB4EEE77AF1EE10FA7D
:104F800000DA25E0144B012283F88722124B00221D
:104F9000C3F87422FFF772FE1AE00F4BD3F8743295
:104FA00007EE903AB8EE677A0A4BD3ED4A7AB4EE40
:104FB000E77AF1EE10FA00DA09E0074B012283F8F4
:104FC0008722054B0022C3F87422FFF757FE00BF6B
:104FD00000BF80BD28150020A81600200000F03F6B
:104FE00080B400AF1F4BD3F838311E4AC2F84031AD
:104FF0001C494FF000021C4BC1E9222319494FF014
:105000000002194BC1E92C2316494FF000024FF062
:105010000003C1E92A2313494FF000024FF00003B7
:10502000C1E924230F494FF000024FF00003C1E90A
:1050300026230C494FF000024FF00003C1E928235A
:1050400008494FF000024FF00003C1E92E23054943
:105050004FF00002044BC1E9302300BFBD465DF8AC
:10506000047B7047281500200000F03F80B500AF9A
:10507000B24B93F87531062B08D0B14B002283F860
:105080008922AF4B052283F8802254E1AC4B93F880
:105090008932013B032B00F2328101A252F823F046
:1050A000B150000071510000B3520000C95200001D
:1050B000A2494FF00002A34BC1E922239F494FF0C0
:1050C0000002A04BC1E92C239C494FF000024FF095
:1050D0000003C1E9242399494FF000024FF0000377
:1050E000C1E9262395494FF000024FF00003C1E9C2
:1050F0002E2392494FF00002924BC1E93023904B8E
:10510000D3F8743207EE903AB8EE677A8C4BD3ED51
:105110009C6A8A4BD3ED497A76EEE77AB4EEE77A69
:10512000F1EE10FA00DA06E1854B022283F88922BB
:10513000834B0022C3F8742280494FF000024FF0E5
:105140000003C1E922237D494FF000024FF0000324
:10515000C1E9282379494FF000024FF00003C1E96B
:10516000302376494FF00002764BC1E92A23E2E072
:1051700072494FF000024FF00003C1E922236F494A
:105180004FF000026F4BC1E92C236C494FF0000235
:105190004FF00003C1E92E2368494FF000024FF0A1
:1051A0000003C1E9262365494FF000024FF00003D8
:1051B000C1E9242361494FF000024FF00003C1E927
:1051C00030235F4B93ED9C7A5C4B93F8723107EE82
:1051D000903AF8EEE77AB4EEE77AF1EE10FA17D5E6
:1051E000574B052283F88922554B0022C3F87422BD
:1051F000534B93ED9C7A514B93F8773107EE903AED
:10520000F8EE677A77EE277A4D4BC3ED9C7A91E002
:105210004B4B93ED9C7A494B93F8723107EE903AE1
:10522000F8EEE77AB4EEE77AF1EE10FA17DD444BC8
:10523000042283F88922424B0022C3F87422404B97
:1052400093ED9C7A3D4B93F8773107EE903AF8EE68
:10525000677A77EE677A3A4BC3ED9C7A6AE0384B0F
:1052600093ED9C7A354B93F8723107EE903AF8EE55
:10527000E77AB4EE677AF1EE10FA5BD1304BD3F8EF
:10528000743207EE903AB8EE677A2C4BD3ED497A38
:10529000B4EEE77AF1EE10FA00DA4BE0284B012287
:1052A00083F88922264B0022C3F87422FFF798FE68
:1052B00040E0234B012283F88922214B0022C3F8CE
:1052C0007422FFF78DFE36E01D4BD3F8743207EEE3
:1052D000903AB8EE677A194BD3ED497AB4EEE77A93
:1052E000F1EE10FA00DA26E0154B012283F889224C
:1052F000134B0022C3F87422FFF772FE1BE0104B21
:10530000D3F8743207EE903AB8EE677A0B4BD3EDD0
:10531000497AB4EEE77AF1EE10FA00DA0BE0084BC6
:10532000012283F88922064B0022C3F87422FFF77A
:1053300057FE00E000BF00BF80BD00BF2815002061
:10534000A81600200000F03F80B584B000AF786060
:10535000A84B93F87531042B08D0A74B002283F893
:105360008A22A54B052283F880223EE10023FB73AD
:105370000023BB7300237B739F4B93F88A32032B6C
:105380007BD0032B00F3BD80012B02D0022B69D010
:10539000B7E098494FF00002984BC1E93223954994
:1053A0004FF00002954BC1E9222392494FF00002D1
:1053B000924BC1E92C238F494FF000024FF00003BC
:1053C000C1E924238B494FF000024FF00003C1E9EB
:1053D000262388494FF000024FF00003C1E92E2335
:1053E00084494FF00002854BC1E93023824BD3E959
:1053F00094014FF00002814BFBF77AFD0346002B2E
:105400002CD07D4BD3F874327A4AB2F856219342AD
:1054100024D3794BD3F8743207EE903AB8EE677A1A
:10542000744B93F8763107EE903AF8EE676A714B59
:10543000D3ED497A76EEE77AB4EEE77AF1EE10FA38
:1054400002DB0123FB730CE07B681B78002B02D08E
:105450000123BB7305E001237B7302E001237B730F
:105460005AE059E0644B012283F88A22624B002201
:10547000C3F87422FEF7F4FC4EE05E494FF00002E0
:105480004FF00003C1E922235A494FF000025B4B61
:10549000C1E92C2357494FF000024FF00003C1E946
:1054A0002E2354494FF000024FF00003C1E9262398
:1054B00050494FF000024FF00003C1E924234D4949
:1054C0004FF000024FF00003C1E930234A4BD3F8FC
:1054D000743207EE903AB8EE677A464BD3ED497ACC
:1054E000B4EEE77AF1EE10FA00DA15E0424B012251
:1054F00083F88A22404B0022C3F87422FEF7B0FCE6
:105500000AE03D4B012283F88A223B4B0022C3F87C
:105510007422FEF7A5FC00BF7B7B002B2CD0364B02
:10552000D3E994014FF000024FF00003FBF7E0FCD9
:105530000346002B20D07B681B78002B02D0012370
:10554000BB7319E02C4BD3F8743207EE903AB8EEE7
:10555000677A284B93F8763107EE903AF8EE676A4F
:10556000244BD3ED497A76EEE77AB4EEE77AF1EEA2
:1055700010FA01DB0123FB73BB7B002B09D01E4B10
:10558000042283F88A221C494FF000021B4BC1E918
:105590009423FB7B002B28D0174B032283F88A220D
:1055A000154B0022C3F8742212494FF000024FF04D
:1055B0000003C1E922230F494FF000024FF000031E
:1055C000C1E928230B494FF000024FF00003C1E965
:1055D000302308494FF00002084BC1E92A2306494D
:1055E0004FF00002054BC1E9942300BF1037BD46C0
:1055F00080BD00BF28150020A81600200000F03F45
:1056000080B582B000AF78607B6801225A60194B88
:105610004FF0FF325A66174B00229A66154B5B6EAD
:105620000A2200211448FDF7A5F802467B681A619A
:105630007B681B694FF4E1311846FDF773FB0D4B96
:10564000012283F86C200B4B002283F86D207B68CD
:105650001869084B93F86D20064B93F86C300821BD
:10566000FDF76CFB7B6801221A7200BF0837BD464C
:1056700080BD00BF281500209015002080B584B0A3
:1056800002AF78607B6801225A605D4B002283F88C
:105690006E205B4B00221A67594B1B6F584A92F8D9
:1056A0006E2011461846FEF753F902467B689A624F
:1056B0007B68544A5A627B689A6A7B685B6A1946BF
:1056C0001046FEF769F94E4B2B2283F854214C4BC0
:1056D000402283F855217B68986A002301930023B8
:1056E00000930223484A1D21FEF7A1F94FF4FA70F6
:1056F00005F0BEF8424B2A2283F87A217B68986A2B
:1057000000230193012300930123404A1D21FEF74A
:105710008EF903461A463A4B83F87A21384B93F8B0
:105720007A31002B10D17B68986A01230193002302
:1057300000930123354A1D21FEF745F90122334923
:105740003348FCF783FD03E02D4B002283F87921D9
:105750002B4B2A2283F85421294B93F8793123F0DB
:105760000103DAB2264B83F855217B68986A00233F
:105770000193002300930223234A1D21FEF757F9CA
:105780001F4B0E2283F854211D4B012283F8552113
:105790007B68986A002301930023009302231A4A2E
:1057A0001D21FEF744F9164B5B2283F85421144B5C
:1057B000002283F855217B68986A00230193002317
:1057C00000930223104A1D21FEF731F90C4B2A22C7
:1057D00083F854210A4B012283F855217B68986A8B
:1057E00000230193002300930223074A1D21FEF7A3
:1057F0001EF97B6801221A7200BF0837BD4680BDC2
:1058000028150020A08601007C160020A21600208A
:10581000A116002080B483B000AF78607B680022BE
:105820001A727B6801225A607B6801221A637B68C6
:1058300001225A637B6800229A637B6800229A6384
:105840007B6803F138027B68DA627B6801221A7296
:105850007B6800225A7200BF0C37BD465DF8047B9E
:105860007047000000000000B0B584B002AF904B5C
:10587000D3E93E018F4BD3E90423FBF739FB034601
:10588000002B05D18B4BD3E904238949C1E93E2381
:10589000874BD3F8F030222287491846FDF762FA89
:1058A00003461A46854B83F8782122228249834891
:1058B000FCF7CCFC7E4BD3E936017E4BD3E90023C9
:1058C000FBF716FB0346002B05D17A4BD3E90023E7
:1058D0007749C1E93623764BD3F8D0301846FCF728
:1058E000DBFE734BD3F8D030072275491846FCF71E
:1058F00077FE6F4BD3E92E016E4BD3E90223FBF702
:10590000F7FA0346002B05D16A4BD3E90223684915
:10591000C1E92E23664BD3F8B0301846FCF7BCFE25
:10592000634BD3F8B030072266491846FCF758FE9F
:105930005F4B93F87D32002B44D15D4B012283F8FD
:105940007D225B4B022283F87E225C4B012283F88E
:1059500075215A4B502283F87621584B4FF07E52D6
:10596000C3F83021554B4FF07E52C3F83821534BCA
:105970004FF07C52C3F82821504B4FF07C52C3F8B3
:1059800024214E4B4FF4C872A3F858214B4B4FF4CF
:10599000FA72A3F85621494B4FF07A52C3F82C21E2
:1059A000464B4FF07A52C3F83421444B042283F81B
:1059B0007721424B3C2283F87421404BA02283F88C
:1059C0007321A3E03A4B93F87E32032B10D0032BC4
:1059D00013DC012B02D0022B05D00EE0344B042245
:1059E00083F87E2292E0324B042283F87E228DE0FF
:1059F0002F4B042283F87E2288E0304B93F87831D5
:105A0000002B40F081802D4B1B78002B49D0012BBF
:105A10007BD1274B032283F87E22284B5A78274BD1
:105A200083F87521254B9A78244B83F8762104223C
:105A300025492648FCF70AFC042225492548FCF79D
:105A400005FC042224492548FCF700FC04222449D3
:105A50002448FCF7FBFB022223492448FCF7F6FB11
:105A6000022223492348FCF7F1FB04222249234860
:105A7000FCF7ECFB042222492248FCF7E7FB0F4B22
:105A8000DA7F0E4B83F877210C4B93F820200B4BD9
:105A900083F87321094B93F82120084B83F8742174
:105AA00033E0034B012283F87E2202F059F92CE007
:105AB000A8160020800600204A1500202815002086
:105AC00000160020F81500202B1500205816002085
:105AD0002F150020601600203315002050160020DE
:105AE000371500204C1600203B15002080160020A2
:105AF0003D1500207E1600203F1500205416002082
:105B0000431500205C16002000BF00BF3F4BD3E9C7
:105B100020013F4BD3E90823FBF7EAF90346002BAA
:105B200005D13B4BD3E908233849C1E92023394B40
:105B3000012283F87821354BD3F898000023019394
:105B4000012300930123344A1D21FDF770FF034612
:105B50001A46304B83F878212E4B93F87831002B7E
:105B600068D12A4BD3F898000123019300230093B6
:105B700006232A4A1D21FDF726FF06222749284829
:105B8000FCF764FB022226492648FCF75FFB214B09
:105B900093F851211F4B83F852211E4B93F850214B
:105BA0001C4B83F8532102221F491D48FCF74EFB72
:105BB00002221E491B48FCF749FB164B93F8512162
:105BC000144B83F85221134B93F85021114B83F857
:105BD0005321022214491548FCF738FB02221449CC
:105BE0001048FCF733FB0B4B93F85121094B83F81A
:105BF0005221084B93F85021064B83F8532102227F
:105C000009490B48FCF722FB20E000BFA816002042
:105C10008006002028150020A01600203E16002037
:105C200038160020781600207A1600203A16002038
:105C30003C160020B64B0022A3F81021B44B0022E2
:105C4000A3F81221B24B0022A3F81421B04BB3F9F0
:105C500010319B101BB21846FAF778FE02460B462D
:105C6000FAF728FD02460B4610461946A6A3D3E9CB
:105C70000023FAF7D5FE02460B46104619464FF0B0
:105C80000002A44BFAF7F6FF02460B4610461946EF
:105C9000A14BD3E90C23FAF7C3FE02460B469C49FD
:105CA000C1E912239A4BB3F912319B101BB218466B
:105CB000FAF74CFE02460B46FAF7FCFC02460B468E
:105CC0001046194690A3D3E90023FAF7A9FE02462D
:105CD0000B46104619464FF000028E4BFAF7CAFFEA
:105CE00002460B46104619468B4BD3E90C23FAF7B4
:105CF00097FE02460B468649C1E91423844BB3F94B
:105D000014319B101BB21846FAF720FE02460B46D0
:105D1000FAF7D0FC02460B46104619467AA3D3E99F
:105D20000023FAF77DFE02460B46104619464FF057
